{
  "contractName": "Consumer",
  "abi": [
    {
      "inputs": [
        {
          "internalType": "address",
          "name": "_oracle",
          "type": "address"
        }
      ],
      "stateMutability": "nonpayable",
      "type": "constructor"
    },
    {
      "inputs": [],
      "name": "oracle",
      "outputs": [
        {
          "internalType": "contract IOracle",
          "name": "",
          "type": "address"
        }
      ],
      "stateMutability": "view",
      "type": "function",
      "constant": true
    },
    {
      "inputs": [],
      "name": "getData",
      "outputs": [
        {
          "internalType": "bool",
          "name": "",
          "type": "bool"
        },
        {
          "internalType": "uint256",
          "name": "",
          "type": "uint256"
        },
        {
          "internalType": "uint256",
          "name": "",
          "type": "uint256"
        }
      ],
      "stateMutability": "view",
      "type": "function",
      "constant": true
    }
  ],
  "bytecode": "0x608060405234801561001057600080fd5b5060405161039b38038061039b8339818101604052602081101561003357600080fd5b8101908080519060200190929190505050806000806101000a81548173ffffffffffffffffffffffffffffffffffffffff021916908373ffffffffffffffffffffffffffffffffffffffff16021790555050610307806100946000396000f3fe608060405234801561001057600080fd5b50600436106100365760003560e01c80633bc5de301461003b5780637dc0d1d014610069575b600080fd5b61004361009d565b604051808415158152602001838152602001828152602001935050505060405180910390f35b6100716102ad565b604051808273ffffffffffffffffffffffffffffffffffffffff16815260200191505060405180910390f35b60008060008060405160200180807f4254432f55534400000000000000000000000000000000000000000000000000815250600701905060405160208183030381529060405280519060200120905060008060008060009054906101000a900473ffffffffffffffffffffffffffffffffffffffff1673ffffffffffffffffffffffffffffffffffffffff166354f6127f856040518263ffffffff1660e01b81526004018082815260200191505060606040518083038186803b15801561016357600080fd5b505afa158015610177573d6000803e3d6000fd5b505050506040513d606081101561018d57600080fd5b810190808051906020019092919080519060200190929190805190602001909291905050509250925092508261022b576040517f08c379a00000000000000000000000000000000000000000000000000000000081526004018080602001828103825260138152602001807f4e6f20646174612077617320666574636865640000000000000000000000000081525060200191505060405180910390fd5b806078420310156102a4576040517f08c379a000000000000000000000000000000000000000000000000000000000815260040180806020018281038252600d8152602001807f507269636520746f6f206f6c640000000000000000000000000000000000000081525060200191505060405180910390fd5b50505050909192565b60008054906101000a900473ffffffffffffffffffffffffffffffffffffffff168156fea2646970667358221220e6e865f3f4a34916f258f6a6dcb6a8e06d10f23f366161a7036d7345d337e1e464736f6c63430007030033",
  "immutableReferences": {},
  "source": "pragma solidity 0.7.3;\n\nimport \"./IOracle.sol\";\n\ncontract Consumer {\n\n    IOracle public oracle;\n    //mapping(bytes32 => ) public lastPrices\n    constructor(address _oracle){\n        oracle = IOracle(_oracle);\n    }\n\n    function getData() public view returns(bool, uint, uint){\n        bytes32 key = keccak256(abi.encodePacked('BTC/USD'));\n        (bool success, uint date, uint payload) = oracle.getData(key);\n        require(success, \"No data was fetched\");\n        require(block.timestamp - 2 minutes >= payload, \"Price too old\");\n        // I willl do something with the data\n    }\n}",
  "sourcePath": "/home/anthler/Desktop/BOOT-FINANCE/oracle-dev/contracts/Consumer.sol",
  "compiler": {
    "name": "solc",
    "version": "0.7.3+commit.9bfce1f6.Emscripten.clang"
  },
  "schemaVersion": "3.3.4",
  "updatedAt": "2021-03-16T18:13:45.501Z",
  "networkType": "ethereum",
  "devdoc": {
    "kind": "dev",
    "methods": {},
    "version": 1
  },
  "userdoc": {
    "kind": "user",
    "methods": {},
    "version": 1
  }
}