{
  "contractName": "Oracle",
  "abi": [
    {
      "inputs": [],
      "stateMutability": "nonpayable",
      "type": "constructor"
    },
    {
      "inputs": [],
      "name": "admin",
      "outputs": [
        {
          "internalType": "address",
          "name": "",
          "type": "address"
        }
      ],
      "stateMutability": "view",
      "type": "function",
      "constant": true
    },
    {
      "inputs": [
        {
          "internalType": "bytes32",
          "name": "",
          "type": "bytes32"
        }
      ],
      "name": "data",
      "outputs": [
        {
          "internalType": "uint256",
          "name": "date",
          "type": "uint256"
        },
        {
          "internalType": "uint256",
          "name": "payload",
          "type": "uint256"
        }
      ],
      "stateMutability": "view",
      "type": "function",
      "constant": true
    },
    {
      "inputs": [
        {
          "internalType": "address",
          "name": "",
          "type": "address"
        }
      ],
      "name": "reporters",
      "outputs": [
        {
          "internalType": "bool",
          "name": "",
          "type": "bool"
        }
      ],
      "stateMutability": "view",
      "type": "function",
      "constant": true
    },
    {
      "inputs": [
        {
          "internalType": "address",
          "name": "newReporter",
          "type": "address"
        },
        {
          "internalType": "bool",
          "name": "isReporter",
          "type": "bool"
        }
      ],
      "name": "updateReporter",
      "outputs": [],
      "stateMutability": "nonpayable",
      "type": "function"
    },
    {
      "inputs": [
        {
          "internalType": "bytes32",
          "name": "key",
          "type": "bytes32"
        },
        {
          "internalType": "uint256",
          "name": "payload",
          "type": "uint256"
        }
      ],
      "name": "updateData",
      "outputs": [],
      "stateMutability": "nonpayable",
      "type": "function"
    },
    {
      "inputs": [
        {
          "internalType": "bytes32",
          "name": "key",
          "type": "bytes32"
        }
      ],
      "name": "getData",
      "outputs": [
        {
          "internalType": "bool",
          "name": "success",
          "type": "bool"
        },
        {
          "internalType": "uint256",
          "name": "timestamp",
          "type": "uint256"
        },
        {
          "internalType": "uint256",
          "name": "payload",
          "type": "uint256"
        }
      ],
      "stateMutability": "view",
      "type": "function",
      "constant": true
    }
  ],
  "bytecode": "0x608060405234801561001057600080fd5b50336000806101000a81548173ffffffffffffffffffffffffffffffffffffffff021916908373ffffffffffffffffffffffffffffffffffffffff16021790555061046f806100606000396000f3fe608060405234801561001057600080fd5b50600436106100625760003560e01c80630147fb0c146100675780631ec6e24f146100b05780632cc1cd9e1461010057806354f6127f1461015a578063a8200ab7146101ac578063f851a440146101e4575b600080fd5b6100936004803603602081101561007d57600080fd5b8101908080359060200190929190505050610218565b604051808381526020018281526020019250505060405180910390f35b6100fe600480360360408110156100c657600080fd5b81019080803573ffffffffffffffffffffffffffffffffffffffff16906020019092919080351515906020019092919050505061023c565b005b6101426004803603602081101561011657600080fd5b81019080803573ffffffffffffffffffffffffffffffffffffffff1690602001909291905050506102ef565b60405180821515815260200191505060405180910390f35b6101866004803603602081101561017057600080fd5b810190808035906020019092919050505061030f565b604051808415158152602001838152602001828152602001935050505060405180910390f35b6101e2600480360360408110156101c257600080fd5b81019080803590602001909291908035906020019092919050505061037c565b005b6101ec610415565b604051808273ffffffffffffffffffffffffffffffffffffffff16815260200191505060405180910390f35b60026020528060005260406000206000915090508060000154908060010154905082565b60008054906101000a900473ffffffffffffffffffffffffffffffffffffffff1673ffffffffffffffffffffffffffffffffffffffff163373ffffffffffffffffffffffffffffffffffffffff161461029457600080fd5b80600160008473ffffffffffffffffffffffffffffffffffffffff1673ffffffffffffffffffffffffffffffffffffffff16815260200190815260200160002060006101000a81548160ff0219169083151502179055505050565b60016020528060005260406000206000915054906101000a900460ff1681565b6000806000806002600086815260200190815260200160002060000154141561033f576000925060009150600090505b6001925060026000858152602001908152602001600020600001549150600260008581526020019081526020016000206001015490509193909250565b600160003373ffffffffffffffffffffffffffffffffffffffff1673ffffffffffffffffffffffffffffffffffffffff16815260200190815260200160002060009054906101000a900460ff166103d257600080fd5b6040518060400160405280428152602001828152506002600084815260200190815260200160002060008201518160000155602082015181600101559050505050565b60008054906101000a900473ffffffffffffffffffffffffffffffffffffffff168156fea2646970667358221220a8615bfe7070ed0ae6a6d967cad9f3a68b924f34a16ca4916bf7608287a52a8b64736f6c63430007030033",
  "immutableReferences": {},
  "source": "pragma solidity 0.7.3;\n\ncontract Oracle {\n\n    address public admin;\n    mapping(address => bool) public reporters;\n    mapping(bytes32 => Data) public data;\n\n    struct Data{\n        uint date;\n        uint payload;\n    }\n\n    constructor(){\n        admin  = msg.sender;\n    }\n\n    function updateReporter(address newReporter, bool isReporter) external {\n        require(msg.sender == admin);\n        reporters[newReporter] = isReporter;\n    }\n\n    function updateData(bytes32 key, uint payload) external {\n        require(reporters[msg.sender]);\n        data[key] = Data(block.timestamp,payload);\n    }\n\n    function getData(bytes32 key) external view returns(bool success, uint timestamp, uint payload){\n        if(data[key].date == 0){\n            success = false;\n            timestamp = 0;\n            payload = 0;\n        }\n            success = true;\n            timestamp = data[key].date;\n            payload = data[key].payload;\n    }\n\n}",
  "sourcePath": "/home/anthler/Desktop/BOOT-FINANCE/oracle-dev/contracts/Oracle.sol",
  "compiler": {
    "name": "solc",
    "version": "0.7.3+commit.9bfce1f6.Emscripten.clang"
  },
  "schemaVersion": "3.3.4",
  "updatedAt": "2021-03-16T18:13:45.504Z",
  "networkType": "ethereum",
  "devdoc": {
    "kind": "dev",
    "methods": {},
    "version": 1
  },
  "userdoc": {
    "kind": "user",
    "methods": {},
    "version": 1
  }
}